{"abi":[{"type":"constructor","inputs":[],"stateMutability":"nonpayable"},{"type":"function","name":"cadastrarTransacao","inputs":[{"name":"_validador","type":"address","internalType":"address"},{"name":"_idProduto","type":"uint256","internalType":"uint256"},{"name":"_dataTransacao","type":"string","internalType":"string"},{"name":"_valorTransacao","type":"uint256","internalType":"uint256"},{"name":"_valorUnitario","type":"uint256","internalType":"uint256"},{"name":"_quantidadeTransacionada","type":"uint256","internalType":"uint256"},{"name":"_unidadeDeMedida","type":"string","internalType":"string"}],"outputs":[],"stateMutability":"nonpayable"},{"type":"function","name":"proprietarioContrato","inputs":[],"outputs":[{"name":"","type":"address","internalType":"address"}],"stateMutability":"view"},{"type":"function","name":"registrarUsuario","inputs":[{"name":"_usuario","type":"address","internalType":"address"}],"outputs":[],"stateMutability":"nonpayable"},{"type":"function","name":"removerUsuario","inputs":[{"name":"_usuario","type":"address","internalType":"address"}],"outputs":[],"stateMutability":"nonpayable"},{"type":"function","name":"usuarios","inputs":[{"name":"","type":"address","internalType":"address"}],"outputs":[{"name":"","type":"bool","internalType":"bool"}],"stateMutability":"view"},{"type":"function","name":"validarTransacao","inputs":[{"name":"_idTransacao","type":"uint256","internalType":"uint256"}],"outputs":[],"stateMutability":"nonpayable"},{"type":"event","name":"NovaTransacaoConfirmada","inputs":[{"name":"cadastrador","type":"address","indexed":false,"internalType":"address"},{"name":"validador","type":"address","indexed":false,"internalType":"address"},{"name":"idTransacao","type":"uint256","indexed":false,"internalType":"uint256"}],"anonymous":false},{"type":"event","name":"NovaTransacaoRegistrada","inputs":[{"name":"validador","type":"address","indexed":true,"internalType":"address"},{"name":"idProduto","type":"uint256","indexed":true,"internalType":"uint256"},{"name":"dataTransacao","type":"string","indexed":false,"internalType":"string"},{"name":"valorTransacao","type":"uint256","indexed":false,"internalType":"uint256"},{"name":"valorUnitario","type":"uint256","indexed":false,"internalType":"uint256"},{"name":"quantidadeTransacionada","type":"uint256","indexed":false,"internalType":"uint256"},{"name":"unidadeDeMedida","type":"string","indexed":false,"internalType":"string"},{"name":"transacaoValidada","type":"bool","indexed":false,"internalType":"bool"}],"anonymous":false}],"bytecode":{"object":"0x608060405234801561001057600080fd5b50600180546001600160a01b031916331790556108d7806100326000396000f3fe608060405234801561001057600080fd5b50600436106100625760003560e01c8063260bf7a2146100675780634cdec469146100975780635eb43dc0146100ac57806370c8638e146100bf57806391e93ab6146100d2578063f6b91ea9146100e5575b600080fd5b60015461007a906001600160a01b031681565b6040516001600160a01b0390911681526020015b60405180910390f35b6100aa6100a536600461051d565b610118565b005b6100aa6100ba3660046105b8565b6102ac565b6100aa6100cd3660046105b8565b6102fa565b6100aa6100e03660046105da565b610345565b6101086100f33660046105b8565b60036020526000908152604090205460ff1681565b604051901515815260200161008e565b3360009081526003602052604090205460ff166101505760405162461bcd60e51b8152600401610147906105f3565b60405180910390fd5b60008054908061015f83610641565b90915550506040805161012081018252600080548083526001600160a01b038b811660208086019182528587018d8152606087018d8152608088018d905260a088018c905260c088018b905260e088018a90526101008801879052948652600291829052969094208551815590516001820180546001600160a01b03191691909316179091559351918401919091555190918291600382019061020290826106f1565b506080820151600482015560a0820151600582015560c0820151600682015560e0820151600782019061023590826106f1565b5061010091909101516008909101805460ff191691151591909117905560405187906001600160a01b038a16907f7bb8432f1eaf43fb2b17092e1ef3daa1440c77c40e5b0bc5a480e1418cc61de69061029a908a908a908a908a908a906001906107f7565b60405180910390a35050505050505050565b6001546001600160a01b031633146102d65760405162461bcd60e51b815260040161014790610844565b6001600160a01b03166000908152600360205260409020805460ff19166001179055565b6001546001600160a01b031633146103245760405162461bcd60e51b815260040161014790610844565b6001600160a01b03166000908152600360205260409020805460ff19169055565b3360009081526003602052604090205460ff166103745760405162461bcd60e51b8152600401610147906105f3565b6000818152600260205260409020600101546001600160a01b031633146103eb5760405162461bcd60e51b815260206004820152602560248201527f566f6365206e616f20706f64652076616c696461722065737461207472616e7360448201526430b1b0b79760d91b6064820152608401610147565b60008181526002602090815260409182902060088101805460ff19166001908117909155015482513381526001600160a01b03909116918101919091529081018290527fe9b1e13ac344931e124fa6defdf7f8e75d4c9343e5fb128ccb77c2b750f3d1259060600160405180910390a150565b80356001600160a01b038116811461047557600080fd5b919050565b634e487b7160e01b600052604160045260246000fd5b600082601f8301126104a157600080fd5b813567ffffffffffffffff808211156104bc576104bc61047a565b604051601f8301601f19908116603f011681019082821181831017156104e4576104e461047a565b816040528381528660208588010111156104fd57600080fd5b836020870160208301376000602085830101528094505050505092915050565b600080600080600080600060e0888a03121561053857600080fd5b6105418861045e565b965060208801359550604088013567ffffffffffffffff8082111561056557600080fd5b6105718b838c01610490565b965060608a0135955060808a0135945060a08a0135935060c08a013591508082111561059c57600080fd5b506105a98a828b01610490565b91505092959891949750929550565b6000602082840312156105ca57600080fd5b6105d38261045e565b9392505050565b6000602082840312156105ec57600080fd5b5035919050565b6020808252602e908201527f566f6365206e616f2074656d207065726d697373616f2070617261207265616c60408201526d697a61722065737461206163616f60901b606082015260800190565b60006001820161066157634e487b7160e01b600052601160045260246000fd5b5060010190565b600181811c9082168061067c57607f821691505b60208210810361069c57634e487b7160e01b600052602260045260246000fd5b50919050565b601f8211156106ec57600081815260208120601f850160051c810160208610156106c95750805b601f850160051c820191505b818110156106e8578281556001016106d5565b5050505b505050565b815167ffffffffffffffff81111561070b5761070b61047a565b61071f816107198454610668565b846106a2565b602080601f831160018114610754576000841561073c5750858301515b600019600386901b1c1916600185901b1785556106e8565b600085815260208120601f198616915b8281101561078357888601518255948401946001909101908401610764565b50858210156107a15787850151600019600388901b60f8161c191681555b5050505050600190811b01905550565b6000815180845260005b818110156107d7576020818501810151868301820152016107bb565b506000602082860101526020601f19601f83011685010191505092915050565b60c08152600061080a60c08301896107b1565b876020840152866040840152856060840152828103608084015261082e81866107b1565b91505082151560a0830152979650505050505050565b6020808252603a908201527f536f6d656e7465206f2070726f70726965746172696f20646f20636f6e74726160408201527f746f20706f6465207265616c697a61722065737461206163616f00000000000060608201526080019056fea26469706673582212203a5faefc30aae058031a7932282887b14262101b4ce1250cd30ff0aab824ce9264736f6c63430008130033","linkReferences":{}},"methodIdentifiers":{"cadastrarTransacao(address,uint256,string,uint256,uint256,uint256,string)":"4cdec469","proprietarioContrato()":"260bf7a2","registrarUsuario(address)":"5eb43dc0","removerUsuario(address)":"70c8638e","usuarios(address)":"f6b91ea9","validarTransacao(uint256)":"91e93ab6"},"id":26}